:020000040800F2
:1000000000C000200954000815190008171900083D
:10001000191900081B1900081D190008000000002C
:100020000000000000000000000000001F19000890
:1000300021190008000000002319000825190008F4
:1000400051540008515400085154000851540008FC
:1000500051540008515400085154000851540008EC
:1000600051540008515400085154000851540008DC
:1000700051540008515400085154000851540008CC
:1000800051540008515400085154000851540008BC
:1000900051540008515400085154000851540008AC
:1000A000515400085154000851540008515400089C
:1000B000515400085154000851540008515400088C
:1000C000515400085154000851540008515400087C
:1000D000515400085154000851540008515400086C
:1000E000515400082D1900085154000851540008BB
:1000F000515400085154000851540008515400084C
:10010000515400085154000851540008515400083B
:10011000515400085154000851540008515400082B
:10012000515400085154000851540008515400081B
:1001300000000000000000000000000000000000BF
:1001400000000000000000000000000000000000AF
:10015000000000000000000000000000000000009F
:10016000000000000000000000000000000000008F
:10017000000000000000000000000000000000007F
:10018000000000000000000000000000000000006F
:10019000000000000000000000000000000000005F
:1001A000000000000000000000000000000000004F
:1001B000000000000000000000000000000000003F
:1001C000000000000000000000000000000000002F
:1001D000000000000000000000000000000000001F
:0401E0005FF8E0F1F3
:1001E80081F0004102E000BF83F0004330B54FEAE0
:1001F80041044FEA430594EA050F08BF90EA020F4D
:100208001FBF54EA000C55EA020C7FEA645C7FEADF
:10021800655C00F0E2804FEA5454D4EB5555B8BF02
:100228006D420CDD2C4480EA020281EA030382EA73
:10023800000083EA010180EA020281EA0303362D05
:1002480088BF30BD11F0004F4FEA01314FF4801CD8
:100258004CEA113102D0404261EB410113F0004FEA
:100268004FEA03334CEA133302D0524263EB4303A1
:1002780094EA050F00F0A780A4F10104D5F1200E3F
:100288000DDB02FA0EFC22FA05F2801841F100019A
:1002980003FA0EF2801843FA05F359410EE0A5F16E
:1002A80020050EF1200E012A03FA0EFC28BF4CF09F
:1002B800020C43FA05F3C01851EBE37101F0004555
:1002C80007D54FF0000EDCF1000C7EEB00006EEB62
:1002D8000101B1F5801F1BD3B1F5001F0CD34908EC
:1002E8005FEA30004FEA3C0C04F101044FEA445243
:1002F80012F5800F80F09A80BCF1004F08BF5FEACA
:10030800500C50F1000041EB045141EA050130BDA9
:100318005FEA4C0C404141EB0101013C28BFB1F5BB
:10032800801FE9D291F0000F04BF01460020B1FA06
:1003380081F308BF2033A3F10B03B3F120020CDAD9
:100348000C3208DD02F1140CC2F10C0201FA0CF0B7
:1003580021FA02F10CE002F11402D8BFC2F1200C1C
:1003680001FA02F120FA0CFCDCBF41EA0C019040D2
:10037800E41AA2BF01EB0451294330BD6FEA04041B
:100388001F3C1CDA0C340EDC04F11404C4F1200206
:1003980020FA04F001FA02F340EA030021FA04F318
:1003A80045EA030130BDC4F10C04C4F1200220FA6F
:1003B80002F001FA04F340EA0300294630BD21FAAD
:1003C80004F0294630BD94F0000F83F4801306BF73
:1003D80081F480110134013D4EE77FEA645C18BF67
:1003E8007FEA655C29D094EA050F08BF90EA020FFE
:1003F80005D054EA000C04BF1946104630BD91EAF6
:10040800030F1EBF0021002030BD5FEA545C05D1F8
:100418004000494128BF41F0004130BD14F5800437
:100428003CBF01F5801130BD01F0004545F0FE41AB
:1004380041F470014FF0000030BD7FEA645C1ABFE0
:10044800194610467FEA655C1CBF0B46024650EA17
:10045800013406BF52EA033591EA030F41F4002143
:1004680030BD00BF90F0000F04BF0021704730B5C9
:100478004FF4806404F132044FF000054FF000019E
:1004880050E700BF90F0000F04BF0021704730B55F
:100498004FF4806404F1320410F0004548BF404234
:1004A8004FF000013EE700BF42004FEAE2014FEA89
:1004B80031014FEA02701FBF12F07F4393F07F4F64
:1004C80081F06051704732F07F4208BF704793F067
:1004D8007F4F04BF41F40021704730B54FF460747A
:1004E80001F0004521F000411CE700BF50EA01027D
:1004F80008BF704730B54FF000050AE050EA010226
:1005080008BF704730B511F0004502D5404261EB95
:1005180041014FF4806404F132045FEA915C3FF4D6
:10052800D8AE4FF003025FEADC0C18BF03325FEA73
:10053800DC0C18BF033202EBDC02C2F1200300FA24
:1005480003FC20FA02F001FA03FE40EA0E0021FA49
:1005580002F11444BDE600BF70B54FF0FF0C4CF437
:10056800E06C1CEA11541DBF1CEA135594EA0C0FE9
:1005780095EA0C0F00F0DEF82C4481EA030621EA24
:100588004C5123EA4C5350EA013518BF52EA03355F
:1005980041F4801143F4801338D0A0FB02CE4FF011
:1005A8000005E1FB02E506F00042E0FB03E54FF041
:1005B8000006E1FB03569CF0000F18BF4EF0010E39
:1005C800A4F1FF04B6F5007F64F5407404D25FEA35
:1005D8004E0E6D4146EB060642EAC62141EA5551E8
:1005E8004FEAC52040EA5E504FEACE2EB4F1FD0C2A
:1005F80088BFBCF5E06F1ED8BEF1004F08BF5FEAA8
:10060800500E50F1000041EB045170BD06F0004659
:1006180046EA010140EA020081EA0301B4EB5C0406
:10062800C2BFD4EB0C0541EA045170BD41F48011FE
:100638004FF0000E013C00F3AB8014F1360FDEBF23
:10064800002001F0004170BDC4F10004203C35DAFF
:100658000C341BDC04F11404C4F1200500FA05F382
:1006680020FA04F001FA05F240EA020001F0004223
:1006780021F0004110EBD37021FA04F642EB060199
:100688005EEA430E08BF20EAD37070BDC4F10C04C3
:10069800C4F1200500FA04F320FA05F001FA04F287
:1006A80040EA020001F0004110EBD37041F1000173
:1006B8005EEA430E08BF20EAD37070BDC4F120057E
:1006C80000FA05F24EEA020E20FA04F301FA05F2E6
:1006D80043EA020321FA04F001F0004121FA04F28E
:1006E80020EA020000EBD3705EEA430E08BF20EA5E
:1006F800D37070BD94F0000F0FD101F00046400098
:1007080041EB010111F4801F08BF013CF7D041EA19
:10071800060195F0000F18BF704703F0004652001D
:1007280043EB030313F4801F08BF013DF7D043EAEE
:100738000603704794EA0C0F0CEA135518BF95EAA4
:100748000C0F0CD050EA410618BF52EA4306D1D12B
:1007580081EA030101F000414FF0000070BD50EA4A
:10076800410606BF1046194652EA430619D094EAD4
:100778000C0F02D150EA013613D195EA0C0F05D1BE
:1007880052EA03361CBF104619460AD181EA030112
:1007980001F0004141F0FE4141F470014FF00000CA
:1007A80070BD41F0FE4141F4780170BD70B54FF065
:1007B800FF0C4CF4E06C1CEA11541DBF1CEA1355E5
:1007C80094EA0C0F95EA0C0F00F0A7F8A4EB0504C7
:1007D80081EA030E52EA03354FEA013100F08880BE
:1007E8004FEA03334FF0805545EA131343EA126387
:1007F8004FEA022245EA111545EA10654FEA00263C
:100808000EF000419D4208BF964244F1FD0404F5F4
:10081800407402D25B084FEA3202B61A65EB030550
:100828005B084FEA32024FF480104FF4002CB6EB0D
:10083800020E75EB030E22BFB61A754640EA0C008D
:100848005B084FEA3202B6EB020E75EB030E22BFCD
:10085800B61A754640EA5C005B084FEA3202B6EB0E
:10086800020E75EB030E22BFB61A754640EA9C00CD
:100878005B084FEA3202B6EB020E75EB030E22BF9D
:10088800B61A754640EADC0055EA060E18D04FEA5B
:10089800051545EA16754FEA06164FEAC30343EAFB
:1008A80052734FEAC2025FEA1C1CC0D111F4801FC8
:1008B8000BD141EA00014FF000004FF0004CB6E7C1
:1008C80011F4801F04BF01430020B4F1FD0C88BF60
:1008D800BCF5E06F3FF6AFAEB5EB030C04BFB6EB6B
:1008E800020C5FEA500C50F1000041EB045170BD5E
:1008F8000EF0004E4EEA113114EB5C04C2BFD4EB8B
:100908000C0541EA045170BD41F480114FF0000E0E
:10091800013C90E645EA060E8DE60CEA135594EA8A
:100928000C0F08BF95EA0C0F3FF43BAF94EA0C0F8D
:100938000AD150EA01347FF434AF95EA0C0F7FF402
:1009480025AF104619462CE795EA0C0F06D152EA56
:1009580003353FF4FDAE1046194622E750EA41063A
:1009680018BF52EA43067FF4C5AE50EA41047FF44B
:100978000DAF52EA43057FF4EBAE12E74FF0FF3CB0
:1009880006E000BF4FF0010C02E000BF4FF0010C81
:100998004DF804CD4FEA410C7FEA6C5C4FEA430CFA
:1009A80018BF7FEA6C5C1BD001B050EA410C0CBF49
:1009B80052EA430C91EA030F02BF90EA020F0020AB
:1009C800704710F1000F91EA030F58BF994208BF12
:1009D80090422CBFD8176FEAE37040F001007047CF
:1009E8004FEA410C7FEA6C5C02D150EA013C07D126
:1009F8004FEA430C7FEA6C5CD6D152EA033CD3D071
:100A08005DF8040B704700BF8446104662468C466A
:100A18001946634600E000BF01B5FFF7B7FF00289D
:100A280048BF10F1000F01BD4DF808EDFFF7F4FFC6
:100A38000CBF012000205DF808FB00BF4DF808ED51
:100A4800FFF7EAFF34BF012000205DF808FB00BF74
:100A58004DF808EDFFF7E0FF94BF012000205DF896
:100A680008FB00BF4DF808EDFFF7CEFF94BF01204B
:100A780000205DF808FB00BF4DF808EDFFF7C4FF44
:100A880034BF012000205DF808FB00BF4FEA410C8D
:100A98007FEA6C5C02D150EA013C0AD14FEA430C70
:100AA8007FEA6C5C02D152EA033C02D14FF00000AD
:100AB80070474FF0010070474A0011D212F500123A
:100AC80011D20DD56FF47873B3EB62520ED44FEA9E
:100AD800C12343F0004343EA505323FA02F070471E
:100AE8004FF00000704750EA013002D14FF0FF305C
:100AF80070474FF0000070474FEA4102B2F1E043FF
:100B080024BFB3F5001CDCF1FE5C0DD901F0004CEC
:100B18004FEAC0024CEA5070B2F1004F40EB83003C
:100B280008BF20F00100704711F0804F21D113F168
:100B38003872BCBF01F00040704741F480114FEAA1
:100B48005252C2F11802C2F1200C10FA0CF320FA2A
:100B580002F018BF40F001004FEAC1234FEAD32347
:100B680003FA0CFC40EA0C0023FA02F34FEA4303B1
:100B7800CCE77FEA625307D150EA01331EBF4FF03A
:100B8800FE4040F44000704701F0004040F0FE4055
:100B980040F40000704700BF80F0004002E000BF52
:100BA80081F0004142001FBF5FEA410392EA030F50
:100BB8007FEA226C7FEA236C6AD04FEA1262D2EB9A
:100BC8001363C1BFD218414048404140B8BF5B429F
:100BD800192B88BF704710F0004F40F4000020F038
:100BE8007F4018BF404211F0004F41F4000121F04E
:100BF8007F4118BF494292EA030F3FD0A2F1010298
:100C080041FA03FC10EB0C00C3F1200301FA03F1D5
:100C180000F0004302D5494260EB4000B0F5000FF8
:100C280013D3B0F1807F06D340084FEA310102F1B7
:100C38000102FE2A51D2B1F1004F40EBC25008BF69
:100C480020F0010040EA03007047490040EB000033
:100C5800013A28BFB0F5000FEDD2B0FA80FCACF134
:100C6800080CB2EB0C0200FA0CF0AABF00EBC25061
:100C780052421843BCBFD0401843704792F0000F4F
:100C880081F4000106BF80F400000132013BB5E7A2
:100C98004FEA41037FEA226C18BF7FEA236C21D018
:100CA80092EA030F04D092F0000F08BF084670477D
:100CB80090EA010F1CBF0020704712F07F4F04D14B
:100CC800400028BF40F00040704712F100723CBF5E
:100CD80000F50000704700F0004343F0FE4040F488
:100CE800000070477FEA226216BF08467FEA236346
:100CF8000146420206BF5FEA412390EA010F40F431
:100D0800800070474FF0000304E000BF10F000437C
:100D180048BF40425FEA000C08BF704743F0964363
:100D280001464FF000001CE050EA010208BF70477E
:100D38004FF000030AE000BF50EA010208BF704705
:100D480011F0004302D5404261EB41015FEA010C1A
:100D580002BF84460146002043F0B64308BFA3F112
:100D68008053A3F50003BCFA8CF2083AA3EBC253F4
:100D780010DB01FA02FC634400FA02FCC2F1200213
:100D8800BCF1004F20FA02F243EB020008BF20F04A
:100D98000100704702F1200201FA02FCC2F12002B0
:100DA80050EA4C0021FA02F243EB020008BF20EAA5
:100DB800DC7070474FF0FF0C1CEAD0521EBF1CEAD3
:100DC800D15392EA0C0F93EA0C0F6FD01A4480EAC1
:100DD800010C400218BF5FEA41211ED04FF00063AA
:100DE80043EA501043EA5111A0FB01310CF00040D6
:100DF800B1F5000F3EBF490041EAD3715B0040EAFC
:100E0800010062F17F02FD2A1DD8B3F1004F40EBCB
:100E1800C25008BF20F00100704790F0000F0CF09E
:100E2800004C08BF49024CEA502040EA51207F3A62
:100E3800C2BFD2F1FF0340EAC250704740F400003D
:100E48004FF00003013A5DDC12F1190FDCBF00F02E
:100E580000407047C2F10002410021FA02F1C2F1DC
:100E6800200200FA02FC5FEA310040F1000053EA78
:100E78004C0308BF20EADC70704792F0000F00F0C6
:100E8800004C02BF400010F4000F013AF9D040EACC
:100E98000C0093F0000F01F0004C02BF490011F460
:100EA800000F013BF9D041EA0C018FE70CEAD1535E
:100EB80092EA0C0F18BF93EA0C0F0AD030F0004CDE
:100EC80018BF31F0004CD8D180EA010000F0004092
:100ED800704790F0000F17BF90F0004F084691F050
:100EE800000F91F0004F14D092EA0C0F01D142028A
:100EF8000FD193EA0C0F03D14B0218BF084608D153
:100F080080EA010000F0004040F0FE4040F400009C
:100F1800704740F0FE4040F4400070474FF0FF0C2F
:100F28001CEAD0521EBF1CEAD15392EA0C0F93EA76
:100F38000C0F69D0A2EB030280EA010C49024FEAC8
:100F4800402037D04FF0805343EA111143EA101381
:100F58000CF000408B4238BF5B0042F17D024FF439
:100F6800000C8B4224BF5B1A40EA0C00B3EB510F14
:100F780024BFA3EB510340EA5C00B3EB910F24BFFD
:100F8800A3EB910340EA9C00B3EBD10F24BFA3EB82
:100F9800D10340EADC001B0118BF5FEA1C1CE0D14A
:100FA800FD2A3FF650AF8B4240EBC25008BF20F0FD
:100FB800010070470CF0004C4CEA50207F32C2BF51
:100FC800D2F1FF0340EAC250704740F400004FF0EE
:100FD8000003013A37E792F0000F00F0004C02BF1F
:100FE800400010F4000F013AF9D040EA0C0093F0E9
:100FF800000F01F0004C02BF490011F4000F013B43
:10100800F9D041EA0C0195E70CEAD15392EA0C0FAA
:1010180008D142027FF47DAF93EA0C0F7FF470AFE2
:10102800084676E793EA0C0F04D14B023FF44CAF25
:1010380008466EE730F0004C18BF31F0004CCAD1BA
:1010480030F000427FF45CAF31F000437FF43CAFF6
:101058005FE700BF4FF0FF3C06E000BF4FF0010C18
:1010680002E000BF4FF0010C4DF804CD4FEA4002FA
:101078004FEA41037FEA226C18BF7FEA236C11D044
:1010880001B052EA530C18BF90EA010F58BFB2EBF7
:10109800030088BFC81738BF6FEAE17018BF40F077
:1010A800010070477FEA226C02D15FEA402C05D12B
:1010B8007FEA236CE4D15FEA412CE1D05DF8040BB0
:1010C800704700BF844608466146FFE70FB5FFF743
:1010D800C9FF002848BF10F1000F0FBD4DF808EDFB
:1010E800FFF7F4FF0CBF012000205DF808FB00BFEC
:1010F8004DF808EDFFF7EAFF34BF012000205DF846
:1011080008FB00BF4DF808EDFFF7E0FF94BF012092
:1011180000205DF808FB00BF4DF808EDFFF7D2FF8F
:1011280094BF012000205DF808FB00BF4DF808EDD2
:10113800FFF7C8FF34BF012000205DF808FB00BF9F
:101148004FEA4002B2F1FE4F0FD34FF09E03B3EBCC
:1011580012620DD94FEA002343F0004310F0004F0C
:1011680023FA02F018BF404270474FF00000704762
:1011780012F1610F01D1420205D110F0004008BF01
:101188006FF0004070474FF00000704742000ED2E9
:10119800B2F1FE4F0BD34FF09E03B3EB126209D4AA
:1011A8004FEA002343F0004323FA02F070474FF060
:1011B8000000704712F1610F01D1420202D14FF0D5
:1011C800FF3070474FF00000704700BF0348044BE2
:1011D800834202D0034B03B118477047A810002080
:1011E800A8100020000000000548064B1B1AD90F64
:1011F80001EBA301491002D0034B03B11847704714
:10120800A8100020A81000200000000010B5064C0F
:10121800237843B9FFF7DAFF044B13B10448AFF35F
:1012280000800123237010BDA810002000000000DA
:10123800387E000808B5054B1BB105490548AFF3D2
:101248000080BDE80840FFF7CFBF00BF00000000E6
:10125800AC100020387E000872B6FEE700B597B0E3
:10126800282200210CA804F0F0F800230793089323
:1012780009930A930B9301930293039304930593A1
:10128800069305230C934FF480330D9301220F929C
:1012980010920222139214934FF4E01315930CA8A2
:1012A80000F0D2FDE0B90F23079302210891002333
:1012B80009934FF480620A920B9307A800F0F6FF97
:1012C80080B9032301934FF4807302934FF40043D2
:1012D800039301A801F0F0FA30B917B05DF804FBE8
:1012E800FFF7BAFFFFF7B8FFFFF7B6FFF8B500F052
:1012F8005DFDFFF7B3FF00F0A5F800F025F900F059
:10130800AFFA00F0F1F903F075FB02F0A7F9142227
:101318004249434804F063F800F08EF9414BDB6919
:1013280098474CE0012204213F4801F0F6FF642071
:1013380000F060FD00F04CFA3A4B5861002408E0D8
:101348003A4901EB44013A4800EB440002F0B6FC8C
:101358000134B4F5806FF3D3364E374D344F3346EE
:101368002A464FF48061384602F0F6FC334C6FF0A1
:101378007F434FF400623946204602F00FF90520FA
:1013880000F038FD6FF07F434FF400622749204694
:1013980002F004F9234C0023A3603068FFF7F6FE3F
:1013A80060602868FFF7F2FE20601AE01D4BDA68DB
:1013B8001A4B5B689A4202D3214B01221A70002211
:1013C8008021194801F0A9FF322000F013FD154BC8
:1013D8001B69002BA6D0134B9A68104B9B689A4246
:1013E800A0D2104B1B6913B9154B01221A700D4B73
:1013F8001A680A4B1B699A42D8D80A4B5A68074B95
:10140800DB689A42D2D8074BDA68044B1B689A42C9
:10141800D5D30B4B01221A70D1E700BF341000203E
:101428000000020814100020000C0140F0510020B8
:10143800F0590020C8100020CC10002070110020A6
:10144800C41000202DE9F04389B0002404940594C9
:1014580006940794384B9A6942F010029A619A6987
:1014680002F010020092009A9A6942F020029A61F2
:101478009A6902F020020192019A9A6942F00402E4
:101488009A619A6902F004020292029A9A6942F0F9
:1014980008029A619B6903F008030393039BDFF832
:1014A8009C9022461021484601F037FFDFF89080D3
:1014B80022463021404601F030FF224D224643F2B9
:1014C8004501284601F029FF01228021284601F024
:1014D80024FF082304930594069404A9404601F0C8
:1014E800F9FD102304930127059706940226079611
:1014F8000DEB0301484601F0EDFD302304930597F9
:101508000694079604A9404601F0E4FD43F2C5039A
:10151800049305970694079604A9284601F0DAFD76
:101528004FF4404304930594069404A9284601F017
:10153800D1FD09B0BDE8F083001002400008014069
:1015480000100140000C014008B50E480E4B036026
:101558004FF48273436000238360C3600361436177
:101568004FF4007282612022C26103624362836287
:101578000A23C36200F076FA00B908BDFFF76CFED3
:10158800FBE700BFD01000200030014010B586B046
:10159800002302930393049305930268164B9A421F
:1015A80001D006B010BD03F560439A6942F4805239
:1015B8009A619A6902F480520092009A9A6942F0FC
:1015C80004029A619B6903F004030193019BA02321
:1015D80002930223039303230593084C02A9204690
:1015E80001F078FD4023029300230393049302A99A
:1015F800204601F06FFDD4E70030014000080140AB
:1016080000B587B08DF80F0000238DF817304FF61E
:10161800FF73009301230DF117020DF10F01054827
:1016280000F07BFA20B99DF8170007B05DF804FBBD
:101638000120FAE7D010002000B583B00023ADF8F0
:1016480004308DF8063000931148124B03604FF0B8
:10165800FF3343604FF48073836001F0D5F870B9AD
:10166800012201A90A4800F0CAFF58B901226946B7
:10167800074801F025F840B903B05DF804FBFFF70F
:10168800EBFDEDE7FFF7E8FDF0E7FFF7E5FDF3E732
:1016980028110020002800400268104B9A4200D010
:1016A800704700B583B001F0B7FE0D4BDA6942F020
:1016B8000062DA61DB6903F000630193019B094B67
:1016C8000122C3F83C2400221146292001F072FEB1
:1016D800292001F07FFE03B05DF804FB00280040DC
:1016E800001002400000424200B585B0002301937B
:1016F800029303931148124A0260836003730375CF
:101708004FF46022C26143600123036101F024FCAD
:1017180068B908230193012302930023039301A9C5
:10172800064801F095FA28B905B05DF804FBFFF703
:1017380093FDEEE7FFF790FDF6E700BF40110020AC
:101748000024014000B587B000230293039304935B
:1017580005930268114B9A4202D007B05DF804FB6A
:1017680003F56C439A6942F400729A619A6902F42B
:1017780000720092009A9A6942F008029A619B6985
:1017880003F008030193019B0123029303230393AE
:1017980002A9034801F09EFCDFE700BF00240140D6
:1017A800000C014010B5FFF79FFF084801F034FB1B
:1017B8001421064801F086F90028F9D1034C204687
:1017C80001F05EFC204601F03FFA10BD40110020F8
:1017D80010B51120FFF7E6FF1D4B1860FEF742FE1B
:1017E80002460B4600201B49FEF7E0FFFFF784F98D
:1017F800FEF75AFE12A3D3E90023FEF7F5FCFFF724
:101808007BF9FEF751FE10A3D3E90023FEF7CEFFC4
:101818000022114BFEF7A0FEFFF76EF904460F49B0
:10182800FFF784FC00B10D4C00212046FFF760FC57
:1018380020B92046FFF7AAFCC0B210BD0024F8E783
:101848009A99999999990540CCCCCCCCCCCCEC3FC1
:101858003C1100200000C440000059400000C8426C
:1018680008B50A480A4B03604FF4E133436000238C
:101878008360C36003610C2242618361C36101F02C
:101888005DFE00B908BDFFF7E7FCFBE7701100201B
:101898000048004010B586B00023029303930493D8
:1018A80005930268174B9A4201D006B010BD03F5A4
:1018B800E433DA6942F48022DA61DA6902F48022D8
:1018C8000092009A9A6942F008029A619B6903F0B3
:1018D80008030193019B4FF480630293022303934F
:1018E80003230593084C02A9204601F0F3FB4FF4AB
:1018F8000063029300230393049302A9204601F096
:10190800E9FBD2E700480040000C0140FEE7FEE793
:10191800FEE7FEE7FEE770477047704708B500F03E
:1019280057FA08BD08B5024800F036FF08BD00BFE9
:101938002811002082B00E4B9A6942F001029A6188
:101948009A6902F001020092009ADA6942F0805224
:10195800DA61DB6903F080530193019B054A536800
:1019680023F0E06343F00073536002B0704700BF98
:1019780000100240000001402DE9F04782B0054602
:10198800884617461E4600F02FFA0A9B1B1A03EBDF
:10199800060900F029FA8246284B1B68C3F3CB33AB
:1019A80009FB03F301932B689C6838EA04040CBF15
:1019B80001230023BB423DD0B6F1FF3FF3D000F036
:1019C80013FAA0EB0A00484507D2019A02B14A4629
:1019D800019B013B01939146E5E72A68536823F090
:1019E800E00353606B68B3F5827F0BD0AB6AB3F545
:1019F800005F14D0012385F85130002385F850305A
:101A0800032018E0AB68B3F5004F02D0B3F5806F40
:101A1800ECD12A68136823F040031360E6E72A68CC
:101A2800136823F4005313602A68136843F40053BF
:101A38001360DFE7002002B0BDE8F087080000204F
:101A480010B582B004460B46009200228021FFF7B1
:101A580093FF08B902B010BD636D43F020036365BE
:101A68000320F7E7002856D010B50446436A33B977
:101A78004368B3F5827F05D00023C36102E00023E9
:101A8800036143610023A36294F85130002B3CD0DA
:101A9800022384F851302268136823F0400313604E
:101AA800636803F48273A26802F404421343E26891
:101AB80002F400621343226902F0020213436269CE
:101AC80002F001021343A26902F400721343E269AF
:101AD80002F038021343226A02F080021343A26A1A
:101AE80002F40052216813430B60638B226803F0F1
:101AF800040353602268D36923F40063D361002090
:101B08006065012384F8513010BD84F850302046B8
:101B1800FFF73CFDBCE7012070472DE9F04383B097
:101B28001F460A9D90F85030012B00F0168104469C
:101B380088469146012380F8503000F055F9064652
:101B480094F85130DBB26268012B0AD0B2F5827F7B
:101B580040F0F080A268002A40F0F380042B40F0A7
:101B6800F280B8F1000F00F0F080B9F1000F00F03A
:101B7800EE80002F00F0ED8094F85130DBB2042B9A
:101B880002D0052384F8513000236365C4F83890E7
:101B9800E787A787C4F83080E786A786236463644D
:101BA80023681A6812F0400F03D11A6842F0400205
:101BB8001A60E368B3F5006F11D063680BB1012FA9
:101BC8000BD1226B236812781A73236B01332363BA
:101BD800E38E9BB2013B9BB2E38601276EE063680C
:101BE8000BB1012F0BD1226B23681288DA60236BAB
:101BF80002332363E38E9BB2013B9BB2E38601274A
:101C08001BE023689A6812F0010F0ED0E28F92B29F
:101C18005AB1DA68A36B1A80A36B0233A363E38F0C
:101C28009BB2013B9BB2E387012700F0DDF8801BE4
:101C3800A84202D3B5F1FF3F1ED1E38E9BB21BB978
:101C4800E38F9BB2002B5CD023689A6812F0020FD6
:101C5800D7D0E28E92B2002AD3D0002FD1D0226BF7
:101C68001288DA60236B02332363E38E9BB2013B55
:101C78009BB2E3860027C4E7012384F85130032090
:101C880059E023689A6812F0010F0ED0E28F92B2E1
:101C98005AB1DA68A36B1A70A36B0133A363E38F9D
:101CA8009BB2013B9BB2E387012700F09DF8831BA1
:101CB800AB4202D3B5F1FF3F1ED1EDB1E38E9BB22B
:101CC80013B9E38F9BB2E3B123689A6812F0020F4D
:101CD800D7D0E28E92B2002AD3D0002FD1D0226B77
:101CE80012781A73236B01332363E38E9BB2013B93
:101CF8009BB2E3860027C4E7012384F85130032010
:101D080019E0324629462046FFF79AFE70B9A368C3
:101D180033B901932368DA6801929B680193019BA8
:101D2800636DC3B9012384F8513004E0202363654F
:101D3800012000E00220002384F8503003B0BDE801
:101D4800F0830220F7E70220F5E70120F3E70120FE
:101D5800F1E70120EFE70120EDE70220EEE70000C0
:101D680010B504460E4B1A784FF47A73B3FBF2F3AE
:101D78000C4A1068B0FBF3F001F03AFB68B90F2C7D
:101D880001D901200AE0002221464FF0FF3001F07E
:101D980011FB054B1C60002000E0012010BD00BFB6
:101DA80000000020080000200400002008B5074AB1
:101DB800136843F010031360032001F0E9FA0F20C1
:101DC800FFF7CEFFFFF7B6FD002008BD0020024058
:101DD800034A1168034B1B780B441360704700BF1C
:101DE800B811002000000020014B1868704700BFA0
:101DF800B811002038B50446FFF7F6FF0546B4F1E0
:101E0800FF3F02D0044B1B781C44FFF7EDFF401B3B
:101E1800A042FAD338BD00BF0000002082B0084BB2
:101E28001B68084AA2FB03235B0A00FB03F3019328
:101E380000BF019B5A1E0192002BF9D102B07047D6
:101E480008000020D34D6210002800F0F18170B521
:101E580082B00446036813F0010F2CD0994B5B68DD
:101E680003F00C03042B1DD0964B5B6803F00C03A6
:101E7800082B12D06368B3F5803F41D0002B55D1B1
:101E880003F1804303F504331A6822F480321A60A0
:101E98001A6822F480221A6037E08A4B5B6813F4D0
:101EA800803FE7D0874B1B6813F4003F03D063687B
:101EB800002B00F0BF81236813F0020F75D0814B0F
:101EC8005B6813F00C0F5FD07E4B5B6803F00C036C
:101ED800082B54D02369002B00F08A807A4B01220A
:101EE8001A60FFF781FF0546764B1B6813F0020F57
:101EF80075D1FFF779FF401B0228F5D903209EE131
:101F0800704A136843F480331360636843B3FFF780
:101F18006BFF05466B4B1B6813F4003FCBD1FFF7F3
:101F280063FF401B6428F5D9032088E1B3F5A02F8F
:101F380009D0644B1A6822F480321A601A6822F4B5
:101F480080221A60E1E703F18043A3F53C331A6865
:101F580042F480221A601A6842F480321A60D4E788
:101F6800FFF742FF0546574B1B6813F4003FA2D00A
:101F7800FFF73AFF401B6428F5D903205FE1514B76
:101F88005B6813F4803FA5D14E4B1B6813F0020F1A
:101F980003D02369012B40F04F814A4A136823F08C
:101FA800F803616943EAC1031360236813F0080F5B
:101FB80033D0A369002B5CD0434B0122C3F88024A3
:101FC800FFF712FF05463F4B5B6A13F0020F21D162
:101FD800FFF70AFF401B0228F5D903202FE1394AF1
:101FE800136823F0F803616943EAC1031360DCE76F
:101FF800354B00221A60FFF7F7FE0546314B1B6888
:1020080013F0020FD1D0FFF7EFFE401B0228F5D9DD
:10201800032014E10120FFF701FF236813F0040FE8
:1020280000F09680274BDB6913F0805F34D1254B95
:10203800DA6942F08052DA61DB6903F08053019378
:10204800019B0125214B1B6813F4807F26D0E36890
:10205800012B3DD0002B53D103F1804303F504330A
:102068001A6A22F001021A621A6A22F004021A623B
:1020780033E0154B0022C3F88024FFF7B5FE054670
:10208800104B5B6A13F0020FC7D0FFF7ADFE401B81
:102098000228F5D90320D2E00025D3E70B4A1368BC
:1020A80043F480731360FFF79FFE0646074B1B68D7
:1020B80013F4807FCBD1FFF797FE801B6428F5D9F6
:1020C8000320BCE0001002400000424200700040C3
:1020D8005F4A136A43F001031362E36833B3FFF7FF
:1020E80083FE06465A4B1B6A13F0020F2FD1FFF7E7
:1020F8007BFE801B41F288339842F3D903209EE08F
:10210800052B09D0524B1A6A22F001021A621A6A88
:1021180022F004021A62E0E74D4B1A6A42F0040208
:102128001A621A6A42F001021A62D6E7FFF75CFEE9
:102138000646474B1B6A13F0020F08D0FFF754FE00
:10214800801B41F288339842F3D9032077E0E5B940
:10215800E369002B72D03E4A526802F00C02082A4A
:1021680056D0022B17D03B4B00221A66FFF73CFED5
:102178000446374B1B6813F0007F47D0FFF734FE47
:10218800001B0228F5D9032059E0314AD36923F00E
:102198008053D361DCE72F4B00221A66FFF724FE39
:1021A80005462B4B1B6813F0007F06D0FFF71CFE7B
:1021B800401B0228F5D9032041E0236AB3F5803F8C
:1021C8001AD023494B6823F47413226A606A0243C5
:1021D80013434B601F4B01221A66FFF705FE0446A6
:1021E8001B4B1B6813F0007F0ED1FFF7FDFD001B92
:1021F8000228F5D9032022E0154A536823F4003356
:10220800A1680B435360DCE7002018E0002016E0CB
:10221800012B16D00E4B5B6803F48031226A914281
:1022280011D103F47013626A93420ED1002006E0C4
:1022380001207047012002E0012000E0002002B0E8
:1022480070BD0120FBE70120F9E70120F7E700BF97
:1022580000100240000042420F4B5B6803F00C0282
:10226800082A01D00D487047C3F383420C49885CA3
:1022780013F4803F0BD0084B5B68C3F34043094A13
:10228800D35C064A02FB00F0B0FBF3F07047064B44
:1022980003FB00F0704700BF0010024000127A00F4
:1022A800707E00086C7E000800093D00002800F0E0
:1022B800A08070B50D460446524B1B6803F0070317
:1022C8008B420BD24F4A136823F007030B4313606A
:1022D800136803F007038B4240F08D80236813F0E6
:1022E800020F17D013F0040F04D0474A536843F481
:1022F800E0635360236813F0080F04D0424A536820
:1023080043F460535360404A536823F0F003A168D4
:102318000B435360236813F0010F31D06368012B1E
:1023280020D0022B25D0384A126812F0020F64D050
:1023380035494A6822F0030213434B60FFF754FD06
:102348000646314B5B6803F00C036268B3EB820FFF
:1023580016D0FFF749FD801B41F288339842F0D927
:10236800032045E0284A126812F4003FE0D101201A
:102378003EE0254A126812F0007FD9D1012037E0EB
:10238800204B1B6803F00703AB420AD91D4A1368A8
:1023980023F007032B431360136803F00703AB42D2
:1023A8002DD1236813F0040F06D0174A536823F47D
:1023B800E063E1680B435360236813F0080F07D00C
:1023C800114A536823F46053216943EAC1035360F7
:1023D800FFF742FF0C4B5B68C3F303130B4AD35C54
:1023E800D8400B4B18600B4B1868FFF7B9FC00205E
:1023F80070BD012070470120FAE70120F8E70120AD
:10240800F6E700BF00200240001002409C7E000852
:102418000800002004000020014B1868704700BF26
:102428000800002008B5FFF7F7FF044B5B68C3F30B
:102438000223034AD35CD84008BD00BF0010024005
:10244800947E000808B5FFF7E7FF044B5B68C3F309
:10245800C223034AD35CD84008BD00BF0010024025
:10246800947E000800B5036899691FFA81FED8694F
:102478009A691FFA82FCE64505D0D86980B240EA1D
:1024880002405DF804FB80B240EA0140F9E70368C6
:10249800186A5B6A9BB243EA00407047030903EB82
:1024A800830300F00F0000EB4300C0B27047000048
:1024B80000F5FA6C022921D801EB4103C1EBC301F5
:1024C8001E4BA3FB013102EB5103634400F2CF70B2
:1024D80003EB90031A4AA2FB0020A3EB501303EB73
:1024E800D01304331748A0FB03201A1A00EB52003C
:1024F8008008C0EBC000181AC0B2704701EB410356
:10250800C1EBC3010D4BA3FB013102EB5103634443
:1025180003EB9C030A4AA2FB0C12A3EB521303EB36
:10252800D21302330748A0FB03201A1A00EB52000B
:102538008008C0EBC000181ADEE700BF398EE33808
:102548001F85EB512549922438B50446FFF74CFC0A
:10255800054623685A6812F0200F07D1FFF744FC9C
:10256800401BB0F57A7FF4D9032004E05A6842F0A2
:1025780010025A60002038BD38B504460268536816
:1025880023F010035360FFF72FFC054623685B68B0
:1025980013F0200F07D1FFF727FC401BB0F57A7F17
:1025A800F4D9032000E0002038BD38B505460C46B4
:1025B800FFF7CAFF08B1012038BD2B68220C9A61C9
:1025C8002B68A4B2DC612846FFF7D6FF0028F3D0B9
:1025D8000120F1E738B505460C46FFF7B5FF08B10D
:1025E800012038BD2B68220C1A622B68A4B25C62E9
:1025F8002846FFF7C1FF0028F3D00120F1E770B5A6
:10260800002857D00D460646002955D0037C012BDB
:1026180054D00123037402234374BAB90B784C785D
:10262800C4EB0414A4004FF4616202FB03448B78EA
:102638001C4421463046FFF7B8FF0546C8B10423BD
:102648007374002333740125284670BD0878FFF79A
:1026580025FF4FF4616303FB00F46878FFF71EFF62
:10266800C0EB001004EB8004A878FFF717FF0444C0
:10267800DFE73268536823F0050353603046FFF7FD
:1026880006FFB0F1FF3F01D0844204D801237374E0
:1026980000233374D8E700F5A83101F5C07130463E
:1026A800FFF798FF0028F1D00423737400233374D4
:1026B8000125C9E70125C7E70125C5E70225C3E7C5
:1026C80000285AD038B50D460446002957D0037C57
:1026D800012B56D00123037402234374BAB9CB7873
:1026E800C3734B7843738B788373A27B617BE07BE6
:1026F800FFF7DEFE207328702046FFF7B3FE224B5B
:10270800984211D8012363740020207438BDC8781A
:10271800FFF7C4FEE0736878FFF7C0FE6073A8781F
:10272800FFF7BCFEA073E0E7184DA5FB00352D0CA4
:10273800174B03FB150529462046FFF736FF28B13E
:1027480004236374002323740120DFE72046FFF786
:102758009EFEB0F1FF3FD5D08542D3D900F5A83110
:1027680001F5C0712046FFF735FF0028CAD00423C1
:102778006374002323740120C8E7012070470120F7
:10278800C4E70220C2E700BF8F5F010007452EC2E1
:10279800805101007047000010B5044603681A68AC
:1027A80012F0020F03D05B6813F0020F06D1074B3B
:1027B8004FF400325A610123637410BDFFF7EAFF3A
:1027C8002268536823F002035360F0E700040140D5
:1027D800C0B138B505460268536823F00803536052
:1027E800FFF702FB04462B685B6813F0080F07D15C
:1027F800FFF7FAFA001BB0F57A7FF4D9032000E05E
:10280800002038BD01207047002850D010B504467C
:10281800437C4BB1022363742046FFF7D9FF38B1DC
:1028280004236374012010BD0374FEF735FFF1E73C
:102838002046FFF789FE28BB2268536823F0070368
:102848005360A36823B11B4A136B23F0010313637E
:10285800184AD36A23F46073A1680B43D362636890
:10286800B3F1FF3F12D02268C3F30341916022689D
:102878009BB2D3602046FFF77FFE88B104236374C0
:102888000120D0E7042363740120CCE7012000F085
:102898009FF808B1431EE6E7042363740120C2E7EA
:1028A8000023E37301236373A3736374BBE70120FD
:1028B800704700BF006C004070B582B004460368E2
:1028C80013F0010F36D03F4BDB6913F0805F49D11D
:1028D8003C4BDA6942F08052DA61DB6903F08053DD
:1028E8000193019B0125384B1B6813F4807F3BD073
:1028F800344B1B6A13F4407313D0626802F44072BD
:102908009A420ED02F4A136A23F440702F490126A9
:10291800C1F840640026C1F84064106213F0010F4A
:1029280036D1284A136A23F4407361680B43136253
:10293800002D3ED1236813F0020F06D0214A5368B8
:1029480023F44043A1680B435360236813F0100F2E
:1029580034D01C4A536823F4800361690B435360E5
:1029680000202CE00025BEE7174A136843F4807363
:102978001360FFF739FA0646134B1B6813F4807F80
:10298800B6D1FFF731FA801B6428F5D9032016E089
:10299800FFF72AFA06460B4B1B6A13F0020FC0D149
:1029A800FFF722FA801B41F288339842F3D90320BB
:1029B80005E0D36923F08053D361BBE7002002B060
:1029C80070BD00BF0010024000700040000042428D
:1029D80008B501380F2863D8DFE800F03557622FB3
:1029E8006262623262626262626262082F4B5A6895
:1029F800186810F0807054D0C2F383432C49C85C27
:102A080012F4803F15D0294B5B68C3F34043294A31
:102A1800D25C294BB3FBF2F303FB00F0234B5B685A
:102A280013F4800F3DD14000244BA3FB0030400835
:102A380037E0234B03FB00F0F0E7FFF70DFC30E035
:102A4800FFF70AFC2DE0194B1B6A40F202321A40CC
:102A5800B2F5817F26D003F44073B3F5007F04D02C
:102A6800B3F5407F09D000201BE0104A526A12F0EB
:102A7800020FF5D049F6404013E00C4B186810F4EB
:102A880000300ED04FF224400BE0FFF7DBFC074B81
:102A98005B68C3F3813301335B00B0FBF3F000E004
:102AA800002008BD4FF40040FBE700BF00100240C3
:102AB800847E0008807E000800127A00ABAAAAAAC9
:102AC80000093D00F0B583B005460C46002301938C
:102AD800FFF78AF92B689A6812F4807F23D107469A
:102AE8005A6812F4807F03D1DB6A13F4700F29D07F
:102AF800504B1E680220FFF76BFFB6FBF0F62B6801
:102B080019694D4A114236D1D96802F15C42114225
:102B180031D11969494A114240D1DA68484B1A4201
:102B28003ED0292341E0AB6A43F02003AB62002387
:102B380085F82430012003B0F0BD2B681B6813F022
:102B4800020F0FD02B681B6813F0020F4FD1B4F19E
:102B5800FF3FF7D0002CF0D0FFF746F9C31BA34284
:102B6800F0D9EAE7AB6A43F00403AB62002385F8C7
:102B780024300320DFE71969304A114204D1D968AB
:102B880002F16E4211420DD019692E4A0A405AB913
:102B9800DA682C4B13405BB1FC2306E0292304E0E0
:102BA800142302E0542300E0FC2303FB06F607E0AD
:102BB8005423FAE7019BB34210D3019B01330193DD
:102BC800019BB34213D2B4F1FF3FF6D0002CF1D0F1
:102BD800FFF70AF9C01BA042EFD9EBE7AB6A43F055
:102BE8000403AB62002385F824300320A3E72B6895
:102BF8006FF012021A60AB6A43F40073AB622B6881
:102C08009B6803F46023B3F5602F01D0002092E79E
:102C1800287B60B9AB6A23F48073AB62AB6A13F4A8
:102C2800805F88D1AB6A43F00103AB6283E7002081
:102C380081E700BF08000020244992249224491209
:102C480092244900499224000368D86C7047000018
:102C580030B482B00022019290F82420012A00F0BA
:102C68008F800346012280F824204A68062A2DD83E
:102C78000468606B02EB8202053A4FF01F0C0CFAF5
:102C880002FC20EA0C000D6805FA02F202436263B6
:102C98000A68092A38D91C68E06802EB42021E3A21
:102CA8004FF0070C0CFA02FC20EA0C008D6805FABC
:102CB80002F20243E2600A68103A012A34D900207D
:102CC800002283F8242002B030BC70470C2A0DD8AB
:102CD8000568286B02EB8202233A1F24944020EAFD
:102CE80004000C68944020432863D1E70568E86A2B
:102CF80002EB8202413A1F24944020EA04000C6847
:102D080094402043E862C3E71C68206902EB420252
:102D18004FF0070C0CFA02FC20EA0C008D6805FA4B
:102D280002F202432261C6E71A681648824205D0B9
:102D38009A6A42F020029A620120C1E7906810F472
:102D4800000F1BD1906840F4000090600A68102AB8
:102D580001D00020B4E70C4A12680C49A1FB02120A
:102D6800920C02EB82025200019202E0019A013AAF
:102D78000192019A002AF9D10020A1E700209FE7DB
:102D88000220A0E7002401400800002083DE1B4346
:102D980030B583B00023019303689A6812F0010FDD
:102DA80033D104469A6842F001029A60184B1B68B6
:102DB800184AA2FB03239B0C019302E0019B013BF1
:102DC8000193019B002BF9D1FFF70EF80546236804
:102DD8009B6813F0010F16D1FFF706F8431B022B6F
:102DE800F5D923689B6813F0010FF0D1A36A43F06B
:102DF8001003A362E36A43F00103E362002384F84B
:102E08002430012002E0002000E0002003B030BDA3
:102E18000800002083DE1B4390F82430012B68D083
:102E280010B50446012380F82430FFF7B1FF0028CD
:102E38005BD1A36A23F4407323F0010343F4807346
:102E4800A36223682C4A934227D0A26A22F48012F4
:102E5800A2625A6812F4806F05D0A26A22F4405226
:102E680042F48052A262A26A12F4805F2BD0E26A16
:102E780022F00602E262002284F824206FF00202A7
:102E88001A6023689A6802F46022B2F5602F1DD098
:102E98009A6842F480129A602AE0A2F58062526829
:102EA80012F4702FD1D0A26A42F48012A262134A9F
:102EB800526812F4806FD6D0A26A22F4405242F4CB
:102EC8008052A262CFE70022E262D4E70A4A934224
:102ED80004D09A6842F4A0029A6009E0A2F58062E0
:102EE800526812F4702FD3D1F3E7002384F824300A
:102EF80010BD0220704700BF002801400024014097
:102F080038B503689A6812F0010F01D1002038BD66
:102F180004469A6822F001029A60FEF765FF0546AA
:102F280023689B6813F0010F13D0FEF75DFF431B66
:102F3800022BF5D923689B6813F0010FF0D0A36A20
:102F480043F01003A362E36A43F00103E362012044
:102F5800DDE70020DBE70000002800F0888070B57E
:102F68000446836A002B52D02046FFF7C9FFA36AA4
:102F780013F0100375D1002873D1A26A22F4885285
:102F880022F0020242F00202A2626268266839490F
:102F98008E4242D0E1690A43217B42EA4102A56898
:102FA800B5F5807F02D0012D3ED01D4694F814C09F
:102FB800BCF1010F3BD0716821F46941294371606C
:102FC8002568AE682C4931401143A960A168B1F564
:102FD800807F01D0012902D12369013B1B052568A7
:102FE800E96A21F470010B43EB6223689968234B6B
:102FF8000B409A422CD0A36A23F0120343F010032B
:10300800A362E36A43F00103E36201202EE0C36296
:1030180080F82430FEF796FBA6E7E169B1F5402F6A
:10302800B9D14FF40021B6E74FF48075BEE731B946
:10303800A169013945EA413141F40065BBE7A16A5C
:1030480041F02001A162E16A41F00101E162B2E7C9
:103058000023E362A36A23F0030343F00103A3629E
:1030680004E0A36A43F01003A362012070BD0120AD
:10307800704700BF003C0140FDF7E1FFFE0E1FFF57
:1030880090F82430012B13D010B50446012380F8A2
:103098002430FFF735FF38B9A36A23F4885323F0A7
:1030A800010343F00103A362002384F8243010BD18
:1030B80002207047890001F1804101F5D84192B2A0
:1030C8000A607047890001F1804101F5D84108681C
:1030D80080B2704770B582B00024A446ACE0854D3C
:1030E800AB4210D007D9844DAB420CD005F58035E2
:1030F800AB4208D013E0A5F58015AB4203D005F527
:103108007025AB4207D18B68002B5FD0012B58D0BC
:103118004261082403E0A5F58015AB42F3D0BEF167
:10312800FF0F55D806464FEA8C0233680F259540A5
:1031380023EA050304FA02F2134333604B6813F0E1
:10314800805F77D06D4B9A6942F001029A619B6962
:1031580003F001030193019B4FEA9C02951C684B05
:1031680053F825600CF00305AD000F23AB4026EAA9
:103178000306644B984232D003F58063984200F00E
:10318800978003F58063984200F0948003F580638C
:10319800984200F0918003F58063984200F08E8099
:1031A80003F58063984218D0062319E0CC68B6E787
:1031B800CC680434B3E7CC680834B0E7CC680C3486
:1031C800ADE702610824AAE70024A8E70424A6E7DB
:1031D800061DACF108029200A7E7052300E00023D2
:1031E800AB4033430232464D45F822304B6813F466
:1031F800801F65D0444A936843EA0E0393604B6886
:1032080013F4001F62D0404AD36843EA0E03D36028
:103218004B6813F4003F5FD03B4A536843EA0E0300
:1032280053604B6813F4803F5CD0374A136843EA15
:103238000E0313600CF1010C0B6833FA0CF257D033
:10324800012202FA0CF203EA020E32EA0303F1D178
:103258004B68122B3FF643AF122B3FF660AF01A528
:1032680055F823F00F310008B5310008BF310008C8
:10327800D13100082731000827310008273100081C
:1032880027310008273100082731000827310008B6
:1032980027310008273100082731000827310008A6
:1032A8002731000827310008B9310008C531000866
:1032B800012395E7022393E7032391E704238FE78C
:1032C800114A936823EA0E03936098E70E4AD3687D
:1032D80023EA0E03D3609BE70B4A536823EA0E03E5
:1032E80053609EE7084A136823EA0E031360A1E7B8
:1032F80002B070BD00002210000031100010024022
:1033080000000140000801400004014083681942A0
:1033180001D001207047002070470AB10161704751
:103328000904016170470000002808DB0901C9B2DF
:1033380000F1604000F5614080F80013704700F02C
:103348000F000901C9B2014B1954704714ED00E090
:1033580000B500F00700C0F1070CBCF1040F28BF4E
:103368004FF0040C031D062B0FD9C31E4FF0FF3E70
:103378000EFA0CF021EA000199400EFA03FE22EA47
:103388000E0241EA02005DF804FB0023EEE70000AC
:10339800074AD36823F4E0631B041B0C000200F403
:1033A800E060034343F0BF6343F40033D3607047E6
:1033B80000ED00E010B50446054BD868C0F30220C4
:1033C800FFF7C6FF01462046FFF7AEFF10BD00BF5E
:1033D80000ED00E0002807DB00F01F024009012390
:1033E8009340024A42F82030704700BF00E100E0F5
:1033F8000138B0F1807F0BD24FF0E0235861054AC5
:10340800F02182F823100020986107221A61704782
:103418000120704700ED00E0014B01221A6270475D
:1034280000000E4210B504460268136923F44053A5
:10343800C1680B43136183680269134342691A43E5
:103448000168CB6823F4B05323F00C031343CB601B
:103458000268536923F4407381690B43536102681E
:10346800134B9A4220D0FEF7DDFF024602EB8202A0
:1034780002EB820263689B00B2FBF3F20D48A0FBEB
:1034880002314909642303FB11231B013233A0FBDA
:1034980003035B0903F0F00202EB011203F00F03D0
:1034A800216813448B6010BDFEF7CCFF0246DDE7B0
:1034B800003801401F85EB512DE9F84305460F46BA
:1034C80016469946DDF820802B681C6837EA040404
:1034D8000CBF01240024B4422DD1B8F1FF3FF3D032
:1034E800B8F1000F05D0FEF77FFCA0EB09004045BE
:1034F800EAD92A6802F10C0353E8003F23F4D07399
:103508000C3242E800310029F3D12A6802F1140391
:1035180053E8003F23F00103143242E80031002948
:10352800F3D1202385F8413085F84230002385F80F
:103538004030032000E00020BDE8F88360B310B5F8
:10354800044690F8413013B3242384F841302268AC
:10355800D36823F40053D3602046FFF763FF226843
:10356800136923F4904313612268536923F02A03F3
:1035780053612268D36843F40053D3600020606429
:10358800202384F8413084F84230606310BD80F80D
:103598004030FEF77FF9D7E7012070472DE9F04169
:1035A80082B01E4690F84130DBB2202B4BD1044646
:1035B8000D46904600294AD00AB9012044E000236C
:1035C8004364212380F84130FEF70EFC0746A4F837
:1035D8002480A4F82680A368B3F5805F02D04FF05A
:1035E80000080FE02369FBB14FF000080AE038F843
:1035F800023B2268C3F308035360E28C92B2013A9B
:1036080092B2E284E38C9BB28BB100963B460022D7
:1036180080212046FFF750FFD8B9002DE7D015F8D4
:10362800012B23685A60E8E7A8460025EAE70096D8
:103638003B46002240212046FFF73EFF58B9202391
:1036480084F8413000E0022002B0BDE8F08101209A
:10365800FAE70320F8E70320F6E7704738B50024B7
:1036680008E0064D064955F82400FDF757FC45F8D3
:1036780024000134B4F5806FF3DB38BD0C00002062
:1036880000007A449E4B1B68002B00F030812DE926
:10369800F04705469B4A5A604FF07E529A6119706E
:1036A800974BD3F800A04FF08043CAF810309649E2
:1036B800CAF81410DAF80400FDF724FD002840F0D9
:1036C8001981042401E00134E4B20C2C23D82046EB
:1036D800FCF7C8FE06460F4602460B4600204FF090
:1036E800804101F0EDFE804689462846FCF7CAFE77
:1036F80002460B4640464946FDF7B4F90028E2D099
:1037080032463B4600204FF0804101F0D9FEFDF7DC
:10371800D3F9AAF802000D2C00F0EF80784B1D6851
:103728007A4B2B626C88B4F5807F67D00DD9B4F5DD
:10373800006F71D020D9B4F5805F74D1744B05F156
:1037480024060FCB86E80F0029E0402C4FD008D97B
:10375800802C68D16F4B05F124060FCB86E80F004B
:103768001DE0102C15D0202C5DD16B4B05F12406E3
:103778000FCB86E80F0012E0B4F5007F45D0B4F512
:10378800806F50D1654B05F124060FCB86E80F00FA
:1037980005E0634B05F124060FCB86E80F006E6841
:1037A8002046FDF7AFFA01463046FDF7B7FB044661
:1037B80001462869FDF7B2FBFCF776FE02F0A8F98E
:1037C800FDF79AF9A86021466869FDF7A7FBFCF7A1
:1037D8006BFE02F09DF9FDF78FF9E860514920462C
:1037E800FDF7E8FA8046504BEB61002541E04F4B6E
:1037F80005F124060FCB86E80F00D0E74C4B05F106
:1038080024060FCB86E80F00C9E74A4B05F12406CA
:103818000FCB86E80F00C2E7474B05F124060FCB14
:1038280086E80F00BBE73D4B05F124060FCB86E881
:103838000F00B4E7D4692846FDF768FA4146FDF75A
:10384800B9FA44F825002E4B1B68DC6954F825901A
:103858001878FCF707FE06460F464846FCF724FE94
:1038680032463B4601F02CFEFDF746F944F82500A8
:103878000135234B1A6853885C08B5EB530FD9DB25
:103888002CE008F100465D08681EFDF73FFA314656
:10389800FDF790FA0646601BFDF738FA4146FDF73A
:1038A80089FA0146FD693046FDF77CF945F82400A0
:1038B800134B1B68DD6955F824901878FCF7D2FD86
:1038C80006460F464846FCF7EFFD32463B4601F0F8
:1038D800F7FDFDF711F945F824000134084B1F687E
:1038E8007B885A1EA242CCDC0020BDE8F0874FF04E
:1038F800FF3070476FF00100F7E76FF00200F4E760
:103908000C10002000606A470060EA46F0210020A1
:10391800D080000880800008C080000870800008FF
:1039280090800008DB0FC940F0110020F0800008EB
:10393800B0800008E0800008A08000082DE9F04F62
:1039480083B0834601914FF0000A0124DFF8E89024
:1039580001E00134A4B2394B1B68B3F80280B4EB20
:10396800580F47D21D6AE70055F83400FDF7E8FB09
:1039780006B23D446868FDF7E3FB05B24046FDF733
:10398800C5F907463046FDF7C1F901463846FDF747
:1039980011FA4FF06051FDF70DFA06462846FDF77B
:1039A800B5F901463846FDF705FA4FF06051FDF7C5
:1039B80001FA054631463046FDF7FCF90646294628
:1039C8002846FDF7F7F901463046FDF7EBF8FCF716
:1039D8006BFD01F0E3FDFDF78FF83946FDF79EFA20
:1039E800054601464846FDF783FB0028B1D0A246AC
:1039F800A946AEE74FF08F414846FDF7DBF9FDF7E2
:103A0800C5FBFDF77FF9CBF800000C4B1D686C680F
:103A18005046FDF77BF92146FDF7CCF90446688846
:103A2800FDF774F901462046FDF778FA019B186006
:103A380003B0BDE8F08F00BF00401CC60C1000208A
:103A48002DE9F0419846774B1B68002B00F0E78082
:103A58000E46174600240CE02B6AE50050F8242097
:103A680043F834206F4B1B681B6A043500225A51F7
:103A780001346C4B1D686B88A342EDDC286A024652
:103A8800694903F07DFC674B186801230022016A2D
:103A9800243003F0D7FB37B1B8F1000F03D041460B
:103AA8003846FFF74BFF012416E0176AE500D36993
:103AB80053F8241057F83400FDF730FA47F834006B
:103AC800584B1B681F6A0435DB6953F82410785972
:103AD800FDF724FA78510134524B1A685388013B98
:103AE800A342E2DC1378022B18D0002327E0106AE7
:103AF800DA0050F8331001F1004140F83310494919
:103B08000968086A0432815801F100418150013383
:103B1800444A126851889942E9DC15E00023F7E726
:103B2800106ADA0050F8331001F100410432845869
:103B380040F833403B480068006A81500133394AF5
:103B4800126851889942EBDC00250AE0396AEB00DB
:103B5800002241F8352033490968096A0433CA50FC
:103B68000135304B1F687B885C08B5EB530F1ADAB8
:103B78002846FDF7CBF80446B968FDF7B9FA0028DE
:103B8800E4D1F9682046FDF7D1FA0028E8D0DDE74E
:103B9800296AE300002241F8342022490968096AA9
:103BA8000433CA5001341F4B1D68B5F80280A04584
:103BB8001BDD2046FDF7AAF807464046FDF7A6F8A4
:103BC8008046E968FCF7ECFF01463846FDF790FAB5
:103BD8000028DDD1A9684046FCF7E2FF01463846D7
:103BE800FDF79AFA0028DDD0D2E701231A46296AA0
:103BF80005F1240003F026FB002408E01A6A9969FD
:103C080052F83400FDF7D6F846F824000134054B85
:103C18001B685A88A242F1DC0020BDE8F0814FF011
:103C2800FF30FAE70C1000200C000020224BD3F8DC
:103C38000C1C4DF6FF721140C3F80C1CD3F80C1C79
:103C480041F40051C3F80C1CD3F80C1C1140C3F804
:103C58000C1CD3F80C1C41F40051C3F80C1CD3F80D
:103C68000C1C1140C3F80C1CD3F80C1C41F4005177
:103C7800C3F80C1CD3F80C1C1140C3F80C1CD3F867
:103C88000C1C41F40051C3F80C1CD3F80C1C114057
:103C9800C3F80C1CD3F80C1C41F40051C3F80C1CDD
:103CA800D3F80C1C0A40C3F80C2CD3F80C2C42F4A3
:103CB8000052C3F80C2C70470000014070B505464F
:103CC8000C46244ED6F80C3C23F480531B041B0CE2
:103CD800C6F80C3CFFF7AAFFD6F80C3C23F40053B7
:103CE8001B041B0CC6F80C3C0020844601460BE064
:103CF80043EA4000174AD2F80C3C23F400531B0453
:103D08001B0CC2F80C3C01310F2916D8114BD3F803
:103D18000C2C42F40052C3F80C2CD3F8083C13F4D2
:103D2800804300D0012343EA4C0C0A4BD3F80C3CE7
:103D380013F40043DCD00123DAE7064AD2F80C3C3E
:103D480043F48053C2F80C3C0DB1A5F800C004B18F
:103D5800208070BD000001402DE9F84307460E465B
:103D680091469846002417E037F81400FCF78AFBC0
:103D780011A3D3E90023FCF719FD0022124BFCF72D
:103D8800EBFB0FA3D3E90023FCF72EFAFCF7B4FEF4
:103D98000E4D45F824000134A642E5D801213046ED
:103DA800FFF770FC4B46424600210848FFF748FEE3
:103DB800BDE8F883AFF3008000000000E0FFEF40AB
:103DC80060E5D022DBF9034000001440F0410020F8
:103DD8000146B0B1002301E00133DBB2142B0FD848
:103DE800094A52F833208A42F6D85A1C064850F835
:103DF80032008842F0D9044B03EBC20318797047AC
:103E0800FEE71F20704700BF447F0008012070476D
:103E180003207047014B01221A707047326200205C
:103E280008B5002000F07CFE08BD000008B50F4B67
:103E380018600F4800F0D0FF002000F071FE01204C
:103E480000F027FF0021084601F0C2F904210020F4
:103E580001F061F800231A464FF6FF71084600F09A
:103E68007EFF044B00221A7008BD00BF2C620020A0
:103E78001D3E00083262002008B500F019FE042833
:103E880005D0052805D0032800D0002008BD022051
:103E9800FCE70120FAE708B500F0B2FF08BD08B555
:103EA800FDF7A8FF08BD000010B5044600231A4618
:103EB8004FF6FF71084600F052FF064B1B7823B1FE
:103EC8006FF07F4000F068FE10BDA00100F064FEB6
:103ED800FAE700BF4863002008B501F087F908BD7C
:103EE80008B5012804D0094BDB79012B07D008BDA0
:103EF800074B19700548C17301F0C4F8F7E7044B84
:103F080019700248017201F0BDF8F0E7F061002075
:103F180010100020000000002DE9F0470C4620B1E9
:103F2800012840D00020BDE8F0875F4D6B88687994
:103F380003EBD000FCF7A6FAEB796BBB0022002359
:103F4800FCF754F906460F462046FCF79BFA324622
:103F58003B46FCF74BF9544B5B7A022B1FD00022EF
:103F68000023FCF743F90022504BFCF7F5FA04460E
:103F78000D464D4BD86AFCF775FA02460B462046AB
:103F88002946FCF713FC0022494BFCF7E5FA01F03F
:103F980027FDFCF791FDC6E70022464BD0E700223B
:103FA8004FF08043DDE7404D95F83930043B95F8F4
:103FB80038A0CAF10C0203EB430302EB43023E4B69
:103FC80003EBC203D3E90089A889FCF75BFA002256
:103FD8003A4BFCF70BF942464B46FCF7BDFA06464E
:103FE8000F46CAEB440407342B7C04EB8304A4007B
:103FF800AB7B012B4BD00020201AFCF743FA044678
:104008000D46294B93F83B30002B42D00223AAEBF4
:1040180003008000FCF736FA02460B462046294684
:10402800FCF7C4FB01F0D8FB04460D461E4B93F881
:104038003A0000F003000430FCF724FA02460B466D
:1040480020462946FCF788FA04460D46002200233C
:10405800FCF712FDF8B10022144B20462946FCF764
:10406800C5F802460B4640464946FCF775FA024633
:104078000B4630463946FCF7B9F809A3D3E90023C3
:10408800FCF7B4F801F028FCFCF716FD4BE7142008
:10409800B2E70023BBE700240025DCE7AFF300808C
:1040A8002B8716D9CEF7EF3FF061002000002040A3
:1040B80000408F400000F03FB07E00080000114033
:1040C80038B505460C4600231A4640F20121084639
:1040D80000F045FE00F0D8FE01280AD0064B1C72FD
:1040E800054800F0CFFF00222146284600F04CFD8D
:1040F80038BD014BDC73F3E7F061002008B54FF0E1
:10410800040000F0F9FC0220FFF7C9FE08BD00001A
:1041180010B5044600231A464FF6FF71084600F012
:104128001EFE064B1B7823B16FF07F4000F04EFD5A
:1041380010BDA00100F04AFDFAE700BF4863002067
:1041480008B500F061FD08BD08B501F023F808BD09
:1041580010B50C4600F054FE204600F0D2FB00F0EB
:1041680077FD10BD08B500F04FFB08BD10B504463B
:104178000E4B18705870012000F01AF854B1342111
:104188004FF4E86000F040FB442140F2417000F039
:104198003BFB10BD14214FF4E86000F035FB2421EF
:1041A80040F2417000F030FBF3E700BF30620020BE
:1041B80008B5012806D0002000F054FE074B002265
:1041C8005A7008BD012000F04DFE044B5A7818784B
:1041D8008242F6D05870FFF7C9FFF2E7306200203C
:1041E80010B50C46FFF7E4FF2046FFF754FE002009
:1041F800FFF75AFE0120FFF752FEFFF77FFF01206D
:1042080010BD38B50120FFF7D3FF002000F0C4FC33
:1042180000252C460AE00120FFF741FE00F0E6FFEA
:1042280000F00100A04005430134E4B21F2CF2D98C
:10423800FFF764FF284638BD2DE9F04F83B00C46E0
:1042480015461E46BDF83480BDF838A09DF83C7070
:104258009DF844909DF85420674B1A704FB19DF813
:104268004020664B1A7040B1012871D003B0BDE8F8
:10427800F08F624BFF221A70F5E7002000F0EFFC88
:104288005F4E4FF0000B86F828B0F5620B2386F8D6
:1042980034302046FFF79CFD86F8350086F800B0DC
:1042A8004FEAC808A6F802800423337118237371F3
:1042B80086F806B087F00107F771504B1B78337208
:1042C800B9F1000F40D0F22272724D4C0023A37254
:1042D800FFF7A6FD264616F8280F003818BF01205C
:1042E800FFF766FF304600F05FFE204600F0CAFE8A
:1042F800444A6B4692E8030083E80300184600F03E
:10430800F1FB40F2FF1000F0EDFD2846FCF7AAF89B
:1043180002460B4600203C49FCF748FA00223B4B7A
:10432800FCF71AF904460D465046FCF7ABF822464E
:104338002B46FCF711F90022354BFCF70DF9FCF779
:10434800BBFB344B186091E72D4B01225A72BCE736
:10435800002000F084FC5FFA8AF000F08DFC284A07
:10436800012382F82830EBB282F838302A49095DF7
:1043780082F8391082F83A601CB9A5F10B02012ABB
:104388002AD9012C26D01E4A002182F83B101C4A4B
:1043980001211170053BDBB28B4222D9184BA3F8DF
:1043A8000C80174CA773154B1B78E37384F8109097
:1043B8009DF8503063740120FFF7FAFE04F12800DD
:1043C80000F0F2FD204600F05DFE124B4FF6FF7242
:1043D8001A604BE70C2DD6D1094A012182F83B100F
:1043E800D5E7B8F10B0F03D813460C229A81D8E70A
:1043F800034BA3F80C80D4E748630020101000207A
:10440800F0610020507E00080000F03F00002040CE
:1044180000408F404C630020407F00082DE9F047A2
:1044280082B00C46BDF830709DF834809DF8389005
:1044380050B1012851D0204600F063FA129A4F4B30
:104448001A6002B0BDE8F08716464D4D4FF0000ADD
:1044580085F828A00A9AEA620B2285F834201846C3
:10446800FFF7B6FC85F835002E6385F800A0FF003D
:104478006F8004232B7118236B7185F806A088F0D0
:10448800010885F80780B9F1000F22D0F2226A727C
:104498003B4D0123AB72FFF7C3FC2E4616F8280FDD
:1044A800003818BF0120FFF783FE304600F07CFD7E
:1044B800284600F0E7FD334A6B4692E8030083E89C
:1044C8000300184600F00EFB40F2FF1000F00AFD52
:1044D800B1E72B4B01225A72DAE72949012281F808
:1044E80028200A9AD2B281F838202748C05C81F87F
:1044F80039009DF82C0081F83A001BB90A990B394C
:1045080001292DD9012B28D01D4B002183F83B1000
:104518001B4B01211970053AD2B28A4225D9184B92
:104528009F81174D85F80E80184B1B78EB7385F823
:1045380010909DF844306B74FFF772FC2E4616F805
:10454800280F003818BF0120FFF732FE304600F070
:104558002BFD284600F096FD6DE70A9B0C2BD3D166
:10456800074B012183F83B10D2E70B2F02D80C220E
:104578009A81D6E7024B9F81D3E700BF50630020A2
:10458800F0610020507E0008407F000810100020D5
:1045980008B500F06AF908BD08B500F014F908BDBF
:1045A80008B500F03DF908BD30B583B008213C4896
:1045B800FEF7ACFE012801D003B030BD394B002214
:1045C8001A7000F0EBFB04464FF6FF7000F0A0FEF7
:1045D80014F0010F05D0344B1B6813B11B6803B1ED
:1045E800984714F0020F24D114F0400F05D02E4B39
:1045F8001B6813B11B6903B1984714F0800F09D0E9
:10460800294B1B6833B19B6923B114F4807F2AD0EE
:104618000120984714F4007F28D114F0200FCBD044
:10462800214B1B68002BC7D0DB68002BC4D09847F0
:10463800C2E7FF220DF107011C4800F008FE1C48E4
:1046480000F020FE184B1B68002BCDD09D68002D74
:10465800CAD0174A92F90D3092F90C209DF807102C
:104668001248A847C0E700209847D3E700F020FA8F
:10467800042808D10C4B1B68002BCED05B68002B9C
:10468800CBD09847C9E700F013FA0528C5D1064BE7
:104698001B68002BC1D0DB68002BBED09847BCE755
:1046A80000100140326200202C6200203462002099
:1046B8003463002008B5FDF79DFB08BD10B50A203E
:1046C800FFF7F8FF084C002210212046FEF725FED0
:1046D8001420FFF7EFFF012210212046FEF71DFEF0
:1046E8000A20FFF7E7FF10BD0010014008B528B108
:1046F800012210210448FEF710FE08BD00221021F7
:104708000148FEF70AFEF8E70008014008B5C0B204
:10471800FCF776FF08BD000008B520210248FEF727
:10472800F5FD0128F9D008BD0010014008B50020AA
:10473800FFF7DCFFC020FFF7E9FF0020FFF7E6FFE7
:104748000120FFF7D3FFFFF7E7FF08BDF8B50746DD
:104758000E46154600F0B2F90020FFF7C7FF3846AD
:10476800FFF7D4FF002404E0305DFFF7CFFF0134EA
:10477800A4B2AC42F8D30120FFF7B8FF842F00D1D0
:10478800F8BDFFF7C9FFFBE770B504460E461546AE
:1047980000F094F90020FFF7A9FF2046FFF7B6FFC5
:1047A8000020FFF7B3FF002405E00020FFF7AEFF6D
:1047B80030550134A4B2AC42F7D30120FFF796FF7D
:1047C800FFF7AAFF70BD70B504460E46154600F007
:1047D80075F90020FFF78AFF0D20FFF797FF200AE1
:1047E800FFF794FFE0B2FFF791FF002404E0305D8B
:1047F800FFF78CFF0134A4B2AC42F8D30120FFF7D5
:1048080075FFFFF789FF70BD00B583B08DF80710FD
:1048180001220DF10701FFF7D6FF03B05DF804FB95
:1048280070B504460E46154600F048F90020FFF71B
:104838005DFF1D20FFF76AFF200AFFF767FFE0B260
:10484800FFF764FF0020FFF761FF002405E0002068
:10485800FFF75CFF30550134A4B2AC42F7D3012016
:10486800FFF744FFFFF758FF70BD00B583B0012282
:104878000DF10701FFF7D4FF9DF8070003B05DF8BD
:1048880004FB70B504460E46154600F017F90020E3
:10489800FFF72CFF0E20FFF739FF2046FFF736FF02
:1048A800002404E0305DFFF731FF0134A4B2A542D3
:1048B800F8D80120FFF71AFFFFF72EFF70BD70B57B
:1048C80004460E46154600F0F9F80020FFF70EFFE3
:1048D8001E20FFF71BFF2046FFF718FF0020FFF7F9
:1048E80015FF002405E00020FFF710FF30550134C4
:1048F800A4B2A542F7D80120FFF7F8FEFFF70CFF96
:1049080070BD08B5022100F006FB08BD0220704703
:104918007047704710B5064CE36806489847236B04
:104928009847636B00209847034B04221A7010BD08
:10493800F47F00080092FE1E5764002010B5054C55
:10494800236B9847636B00209847034B05221A7026
:1049580010BD00BFF47F00085764002010B5054C57
:10496800236B9847636B00209847034B02221A7009
:1049780010BD00BFF47F00085764002010B5054C37
:10498800236B9847636B00209847034B03221A70E8
:1049980010BD00BFF47F0008576400202DE9F041E6
:1049A80007460C4616461D46DFF83080D8F83030EA
:1049B80098470B4B1C80224639460A4800F072FD86
:1049C800094B1E70094B1D70D8F8343000209847E9
:1049D800074B01221A70BDE8F08100BFF47F000880
:1049E80012100020546300205564002054640020F5
:1049F800576400202DE9F0418AB02448244B036015
:104A0800244B8360244B4360244BC360244B0361D5
:104A1800244D2B689847EB682348984740F6B833ED
:104A28000893002407940694059401260496039499
:104A38004FF00808CDF80880019607270097022351
:104A4800224614213046D5F81CC0E0470996089440
:104A5800079406940596049403940294CDF8048070
:104A6800009433463A4621463046AE69B047AB6CAF
:104A780040F6E70098470D4B18702B6B98476B6B07
:104A8800204698470AB0BDE8F08100BF586400206E
:104A98001D490008A549000845490008654900085E
:104AA80085490008F47F0008C0E3121C5664002002
:104AB800014B1878704700BF7D64002008B5FFF7E8
:104AC800F7FF08B1062803D1FFF730FEFFF720FFF4
:104AD800FFF722FE08BD08B50A4601460020FFF789
:104AE800D0FE08BD08B5014608224FF4D860FFF78C
:104AF8006AFE002008BD000000B583B08DF80400F0
:104B0800FFF707FF012201A98420FFF71FFE034BCF
:104B180000221A7003B05DF804FB00BF7D6400201A
:104B280000B583B08DF8070001220DF10701802040
:104B3800FFF70CFE9DF807302BB9054B01221A70C0
:104B480003B05DF804FB024B02221A70F8E700BFBD
:104B58007D64002000B583B00A4B04221A70C0F3AC
:104B680007438DF80430C0F307238DF805308DF81E
:104B78000600032201A98320FFF7E8FD03B05DF8D2
:104B880004FB00BF7D64002010B51446FFF7A3FFA7
:104B98002046FFF7DFFF10BD00B583B00A4B0522A2
:104BA8001A70C0F307438DF80430C0F307238DF85B
:104BB80005308DF80600032201A98220FFF7C6FD03
:104BC80003B05DF804FB00BF7D64002010B582B01F
:104BD80004460C4B05221A70962140F6AC00FFF7EC
:104BE80013FEC4F307438DF80430C4F307238DF88C
:104BF80005308DF80640032201A98220FFF7A6FDA3
:104C080002B010BD7D64002000B583B0C0F3074337
:104C18008DF80030C0F307238DF801308DF80200BD
:104C2800C1F307438DF80330C1F307238DF804302F
:104C38008DF80510062269469420FFF787FD034B7F
:104C480006221A7003B05DF804FB00BF7D640020E3
:104C580008B500221146D120FFF778FD08BD00B540
:104C680083B08DF8070001220DF107019F20FFF79F
:104C78006DFD03B05DF804FB00B583B08DF8070047
:104C880001220DF10701A020FFF760FD03B05DF8D8
:104C980004FB00B583B08DF8070001220DF1070170
:104CA8009620FFF753FD03B05DF804FB00B583B011
:104CB8001C4B98420DD9E1238DF80430E9238DF877
:104CC8000530022201A99820FFF740FD03B05DF8E6
:104CD80004FB154B984206D9D7238DF80430D82306
:104CE8008DF80530EDE7114B984206D9C1238DF8B0
:104CF8000430C5238DF80530E3E70D4B984206D9FB
:104D080075238DF8043081238DF80530D9E7094BD8
:104D18009842D6D96B238DF804306F238DF805306F
:104D2800CFE700BF00E9A43580F8A9328044E52D1B
:104D3800000B6B1B40FC541900B583B08DF80400C0
:104D48008DF805108DF806208DF8073004220DEB3C
:104D580002019520FFF7FAFC03B05DF804FB00B5EB
:104D680083B04FEA102C8DF800C08DF80100080AB6
:104D78008DF802008DF80310110A8DF804108DF8D3
:104D880005201A0A8DF806208DF807300822694692
:104D98001046FFF7DBFC03B05DF804FB00B583B0F9
:104DA800022201A91220FFF7EFFC9DF804009DF8EC
:104DB800053043EA002003B05DF804FB00B583B07A
:104DC8008DF8070001220DF107019D20FFF7BEFCB9
:104DD80003B05DF804FB000008B5FFF76FFCFFF7B0
:104DE800A5FC0020FFF79CFE0120FFF7E7FF024B20
:104DF80001221A7008BD00BF7D6400200000000079
:104E080010B582B00446164B1B78F3B12046FBF769
:104E180029FB11A3D3E90023FBF7C8FCFBF74CFEE1
:104E2800030E8DF80430C0F307438DF80530C0F346
:104E380007238DF806308DF8070004220DEB0201D8
:104E48008620FFF783FC02B010BDFFF72FFF044B4D
:104E580001221A70DAE700BF000000008084EE3FEC
:104E68007464002000B583B08DF80700C2B2054B0A
:104E78001A7001220DF107018A20FFF767FC03B0C1
:104E88005DF804FB7C640020014B1878704700BF74
:104E98007C64002000B583B0030A8DF804308DF8D7
:104EA8000500FFF7F1FF10B103B05DF804FB022223
:104EB80001A940F2BC60FFF786FCF5E700B583B0B6
:104EC800030A8DF804308DF80500FFF7DDFF10B1F7
:104ED80003B05DF804FB022201A940F2BE60FFF7AF
:104EE80072FCF5E710B50446FFF7CEFF00B110BD20
:104EF8004FF4D760FFF7B9FC00F0FE00C4F30021BF
:104F080001434FF4D760FFF77FFCE1B240F2B9608C
:104F1800FFF77AFCEBE730B583B004460D46002076
:104F2800FFF7F4FC012827D10F2C0DD001231A46D6
:104F380000210420FFF700FF0D2C0CDC14F1030FF7
:104F48000ADA6FF0020407E001231A46002106205E
:104F5800FFF7F2FEF0E70E24182140F6E700FFF70E
:104F680053FC8DF804408DF80550022201A98E20CB
:104F7800FFF7ECFB03B030BD01230022072104201A
:104F8800FFF7DAFE162C05DC14F1030F03DA6FF0D5
:104F9800020400E01624382140F6E700FFF734FC4D
:104FA800DFE700000000000010B582B00446324B75
:104FB80093E8030002AB03E9030020782F4B1B782A
:104FC800984205D1237833B1012B3AD002B010BDF5
:104FD800FFF748FFF6E76068FBF744FA02460B461E
:104FE80021A1D1E90001FBF7E1FB0022244BFBF7EB
:104FF800B3FAFBF761FD030C8DF80030030A8DF856
:1050080001308DF80200237B8DF80330637B8DF827
:105018000430A068FBF726FA15A3D3E90023FBF7B1
:10502800C5FBFBF749FD030C8DF80530030A8DF825
:1050380006308DF80700082269468B20FFF786FBAB
:10504800C4E7237C8DF80030637C8DF80130A37CA5
:105058008DF80230E37C8DF80330042269468B20FA
:10506800FFF774FBB2E700BF0000000080847E41B8
:10507800000000008084EE3F587E00087C64002019
:105088000000404010B584B0044601AB2E4A07CA60
:1050980003C31A7020782D4B1B78984217D12378B8
:1050A800C3B1012B3AD1A3891A0A8DF804208DF8CF
:1050B8000530A37B8DF80630E37B8DF80730237C21
:1050C8008DF80830637C8DF80930062222E0FFF75E
:1050D800C9FEE4E7637AF12B22D0F22B2AD062884A
:1050E800110A8DF804108DF8052022798DF8062014
:1050F80062798DF80720A2798DF80820E2798DF879
:105108000920227A8DF80A208DF80B30A37A8DF8C1
:105118000C30092201A98C20FFF718FB04B010BD40
:105128004FF6FF70FFF7B6FE48F20500FFF7C6FE20
:105138000223D4E741F60F50FFF7ACFE41F22100FD
:10514800FFF7BCFE0623CAE7607E00087C640020E7
:1051580010B582B0049C8DF800008DF801108DF810
:1051680002208DF80330C4F307438DF80430C4F3EC
:1051780007238DF805308DF80640052269468820FA
:10518800FFF7E4FA024B07221A7002B010BD00BF05
:105198007D64002010B582B000231A464FF4C07118
:1051A8000846FFF7DCFD0024009423460A22172155
:1051B8000220FFF7CDFF22462146C520FFF7C6FA99
:1051C800024B07221A7002B010BD00BF7D64002098
:1051D80000B583B08DF804008DF80510022201A9EE
:1051E8008F20FFF7B3FA03B05DF804FB00B583B076
:1051F800012201A91520FFF7C7FA9DF804004042D3
:10520800401003B05DF804FB30B583B005460C468A
:10521800022201A91320FFF7B7FAFFF735FE01288C
:1052280007D09DF804302B709DF80530237003B02B
:1052380030BD40F20470FFF718FBC0F3C710012817
:10524800EFD140F20270FFF710FB2870ECE770B561
:1052580082B006460C46154600238DF807300DF13E
:1052680007012046FFF7D0FF2278AA4202D9012081
:1052780002B070BD31469DF80700FFF720FB002003
:10528800F6E7000010B582B00446032201A91420F5
:10529800FFF77AFAFFF7F8FD207050B1012819D00E
:1052A800002323606360A360E36023610F232370FE
:1052B8000EE09DF8043023719DF805305B425B10C9
:1052C800A3719DF806305B425B1063710023A360F5
:1052D80002B010BD9DF804305B425B1023739DF84B
:1052E80005309DF90520002A0ADB9B0863739DF8A9
:1052F80006305B425B10A373044B1B682361E7E72E
:10530800A3F580739B106373F1E700BF78640020F6
:1053180000B583B0030A8DF804308DF80500022229
:1053280001A91046FFF712FA03B05DF804FB00006C
:1053380038B5144CA3680A33A360E3680A33E36002
:1053480001212161104D22682846FDF7B3FE6268ED
:1053580002212846FDF7AEFEA26803212846FDF784
:10536800A9FEE26804212846FDF7A4FE226905216A
:105378002846FDF79FFE626906212846FDF79AFE3A
:1053880038BD00BF141000202811002038B5104D7A
:1053980001212846FDF796FE0E4C20600221284682
:1053A800FDF790FE606003212846FDF78BFEA060A4
:1053B80004212846FDF786FEE06005212846FDF712
:1053C80081FE206106212846FDF77CFE606138BD1C
:1053D8002811002014100020008880B27047F8B50A
:1053E80005460F461646002407E02846FFF7F4FF57
:1053F80027F8140002350134A4B2B442F5D3F8BD3D
:10540800FEF72BF90B480C490C4A002302E0D4584C
:10541800C4500433C4188C42F9D3094A094C0023F8
:1054280001E013600432A242FBD300F017F8FBF747
:105438005DFF704700000020A810002060D501081B
:10544800A8100020B8650020FEE7034602449342F6
:1054580000D1704703F8011BF9E7000070B500267A
:105468000C4D0D4C641BA410A64209D102F0E0FCBF
:1054780000260A4D0A4C641BA410A64205D170BD33
:1054880055F8043B98470136EEE755F8043B984732
:105498000136F2E758D5010858D5010858D5010852
:1054A8005CD501080A44914200F1FF3300D17047EE
:1054B80010B511F8014B914203F8014FF9D110BD15
:1054C8002DE9F84314461D468046894600F070FBD6
:1054D800224606460F462B4620462946FBF7D6FAB3
:1054E80078B90022002340464946FBF79DFAD8B117
:1054F8000022002320462946FBF796FA28B1002609
:10550800254F30463946BDE8F8832046294600F045
:105518006DF80028F5D02046294600220023FBF725
:105528008DFA0028EDD02CE03046394600F05EF8C0
:10553800A0B10022002330463946FBF775FA00284F
:10554800DFD04046494600F051F80028D9D020461F
:10555800294600F04BF80028D3D012E040464946CF
:1055680000F044F80028E4D02046294600F03EF830
:105578000028DED032463B4630463946FBF786FAED
:1055880020B902F04FFC22230360BAE702F04AFC7C
:1055980021230360B5E700BF0000F03FF8B50446DB
:1055A8000D4600F029F8224606460F462B462046AF
:1055B8002946FBF76BFA30B920462946002200231A
:1055C800FBF73CFA10B930463946F8BD02F02AFC20
:1055D800002200232121016010461946FBF7E6F856
:1055E80006460F4630463946F8BD00BF41F0004038
:1055F80000F58010C00F70472DE9F84F724F044630
:105608008F430D4600F0B28000290B46064602463D
:1056180055DD081500F09B80C3F31303C107A0F202
:10562800FF3743F4801303D4D10F01EB4303520037
:10563800002616244FF40011B4465B0003EBD27326
:105648007F1052000CEB0100834203DB1B1A01EBB5
:10565800000C0E445B00013C03EBD2734FEA51018E
:105668004FEA4202EED120254FF00040A0460AE062
:1056780039D0590001EBD271013D0B464FEA420285
:105688004FEA50003BD09C4508EB000EF0DABEF123
:10569800000F0EEB00080CDBE146A3EB0C01CC4637
:1056A800964588BF01F1FF314900A2EB0E02044480
:1056B800E0E7B8F1000FEFDB0CF10109EDE721F0AD
:1056C800004707433DD0002973D1D10A153B520545
:1056D8000029FAD0CD02184616460B4637D52024A5
:1056E8004FF0FF313EE0964502D94FEA4C01C1E741
:1056F800BEF1000F0EEB000825DB0021D5E71143B2
:1057080012D0DFF8C8A0DFF8C8B0DAE90001DBE999
:105718000023FAF769FDDAE9008902460B4640469C
:105728004946FBF795F958BB6508F20748BF45F0AD
:1057380000452846731003F17F5303F5001303EB6C
:105748000751BDE8F88FB8F1000FB5DAD5E70022A8
:105758005B00DC02114602F10102F9D5C2F1200416
:1057680006FA02F2E640401A334355E702460B4672
:10577800FAF7F2FE22462B46FAF738FDBDE8F88F15
:10578800B4F1FF3FDAE90001DBE9002318D0DAE9D8
:105798000089FAF72BFD02460B4640464946FBF7BF
:1057A8004DF978B1A11C04F1020508BF01366D0856
:1057B800BBE7FAF719FD02460B46FAF7F7FFC0E711
:1057C8000136B2E70134AFE70000F07FA0100020F7
:1057D8009810002000000000C1F30A5C2DE9F04198
:1057E800ACF2FF35132D02460B460C46064634DC58
:1057F800002D20DBDFF8D8800F4648FA05F801EACB
:10580800080C5CEA000C2DD02FA3D3E90023FAF78B
:10581800EDFC00220023FBF72FF940B1002C03DD3B
:105828004FF480132B411F44002627EA0804214621
:105838003046BDE8F08124A3D3E90023FAF7D6FC6B
:1058480000220023FBF718F90028F0D0002C35DBE4
:10585800344331D000261F4CE9E7332D06DDB5F57A
:10586800806F26D010461946BDE8F0814FF0FF370B
:10587800ACF2134C27FA0CF73842F3D012A3D3E951
:105888000023FAF7B3FC00220023FBF7F5F8002801
:10589800CDD0002C334609DD142D06D00122C5F1E8
:1058A8003405AA4013449E4200D9013423EA07066E
:1058B800BDE7FAF79BFCD7E72646B8E700264FF086
:1058C8000044B4E7AFF300809C7500883CE4377E61
:1058D800FFFF0F000000F03FC1F30A5C2DE9F04123
:1058E800ACF2FF35132D02460B460C46064632DC59
:1058F800002D20DBDFF8E0800F4648FA05F801EAC2
:10590800080C5CEA000C2BD031A3D3E90023FAF78A
:105918006DFC00220023FBF7AFF840B1002C03DA3E
:105928004FF480132B411F44002627EA0804214620
:105938003046BDE8F08126A3D3E90023FAF756FCE8
:1059480000220023FBF798F80028F0D0002C27DB72
:1059580000263446EBE7332D06DDB5F5806F1CD005
:1059680010461946BDE8F0814FF0FF37ACF2134CF2
:1059780027FA0CF70742F3D015A3D3E90023FAF767
:1059880035FC00220023FBF777F80028CFD0002C45
:1059980033460CDB23EA0706C9E7FAF727FCE1E7F9
:1059A80024F0004426430DD14FF00044BFE7142DE6
:1059B80006D00122C5F13405AA401344B342E9D206
:1059C8000134E7E70026054CB1E700BFAFF30080DC
:1059D8009C7500883CE4377EFFFF0F000000F0BF95
:1059E800F0B5C1F30A55A5F2FF3EBEF1130F02460A
:1059F8000B460C46844683B04FEAD17663DCBEF191
:105A0800000F31DB404941FA0EF101EA030010436F
:105A18005FD003EA510352EA030C4FEA51010ED05A
:105A2800AEF1130C24EA0101BCFA8CFC4FF480247B
:105A38004FEA5C1C44FA0EF44FEACC7C0C43334921
:105A4800234601EBC601D1E9006762463046394674
:105A5800FAF7CCFBCDE90001DDE9000132463B460F
:105A6800FAF7C2FB03B0F0BD21F00041014319462B
:105A7800F8D0C3F313020243534213431B0B620CC7
:105A880003F40023520443EA02010B461F4902466D
:105A980001EBC601D1E9006730463946FAF7A6FBA3
:105AA800CDE90001DDE9000132463B46FAF79CFBEF
:105AB800024604F0004421F0004144EA0103104684
:105AC800194603B0F0BDBEF1330F06DDBEF5806F99
